{
  "contractName": "Donation",
  "abi": [
    {
      "inputs": [],
      "stateMutability": "nonpayable",
      "type": "constructor"
    },
    {
      "inputs": [],
      "name": "donationCount",
      "outputs": [
        {
          "internalType": "uint256",
          "name": "",
          "type": "uint256"
        }
      ],
      "stateMutability": "view",
      "type": "function"
    },
    {
      "inputs": [],
      "name": "owner",
      "outputs": [
        {
          "internalType": "address payable",
          "name": "",
          "type": "address"
        }
      ],
      "stateMutability": "view",
      "type": "function"
    },
    {
      "inputs": [],
      "name": "totalDonation",
      "outputs": [
        {
          "internalType": "uint256",
          "name": "",
          "type": "uint256"
        }
      ],
      "stateMutability": "view",
      "type": "function"
    },
    {
      "inputs": [
        {
          "internalType": "uint256",
          "name": "",
          "type": "uint256"
        }
      ],
      "name": "transactionHistory",
      "outputs": [
        {
          "internalType": "address",
          "name": "addr",
          "type": "address"
        },
        {
          "internalType": "uint256",
          "name": "amount",
          "type": "uint256"
        },
        {
          "internalType": "uint256",
          "name": "timestamp",
          "type": "uint256"
        }
      ],
      "stateMutability": "view",
      "type": "function"
    },
    {
      "stateMutability": "payable",
      "type": "receive"
    },
    {
      "inputs": [],
      "name": "sendDonation",
      "outputs": [],
      "stateMutability": "payable",
      "type": "function"
    },
    {
      "inputs": [
        {
          "internalType": "address payable",
          "name": "_addr",
          "type": "address"
        }
      ],
      "name": "setAddrFundraiser",
      "outputs": [],
      "stateMutability": "nonpayable",
      "type": "function"
    }
  ],
  "bytecode": "0x608060405234801561001057600080fd5b5033600260006101000a81548173ffffffffffffffffffffffffffffffffffffffff021916908373ffffffffffffffffffffffffffffffffffffffff1602179055506106f1806100616000396000f3fe6080604052600436106100595760003560e01c8063243e7a87146100655780632abfab4d146100a457806335fd0fad146100cf5780638da5cb5b146100f85780638dd8596c14610123578063ee2ac05f1461012d57610060565b3661006057005b600080fd5b34801561007157600080fd5b5061008c6004803603810190610087919061042f565b610158565b60405161009b939291906104ac565b60405180910390f35b3480156100b057600080fd5b506100b96101a2565b6040516100c691906104e3565b60405180910390f35b3480156100db57600080fd5b506100f660048036038101906100f1919061053c565b6101a8565b005b34801561010457600080fd5b5061010d610246565b60405161011a9190610578565b60405180910390f35b61012b61026c565b005b34801561013957600080fd5b506101426103ee565b60405161014f91906104e3565b60405180910390f35b60036020528060005260406000206000915090508060000160009054906101000a900473ffffffffffffffffffffffffffffffffffffffff16908060010154908060020154905083565b60015481565b600260009054906101000a900473ffffffffffffffffffffffffffffffffffffffff1673ffffffffffffffffffffffffffffffffffffffff163373ffffffffffffffffffffffffffffffffffffffff161461020257600080fd5b80600260006101000a81548173ffffffffffffffffffffffffffffffffffffffff021916908373ffffffffffffffffffffffffffffffffffffffff16021790555050565b600260009054906101000a900473ffffffffffffffffffffffffffffffffffffffff1681565b600034116102af576040517f08c379a00000000000000000000000000000000000000000000000000000000081526004016102a6906105f0565b60405180910390fd5b600260009054906101000a900473ffffffffffffffffffffffffffffffffffffffff1673ffffffffffffffffffffffffffffffffffffffff166108fc349081150290604051600060405180830381858888f19350505050158015610317573d6000803e3d6000fd5b5060405180606001604052803373ffffffffffffffffffffffffffffffffffffffff1681526020013481526020014281525060036000600154815260200190815260200160002060008201518160000160006101000a81548173ffffffffffffffffffffffffffffffffffffffff021916908373ffffffffffffffffffffffffffffffffffffffff1602179055506020820151816001015560408201518160020155905050346000808282546103cd919061063f565b92505081905550600160008154809291906103e790610673565b9190505550565b60005481565b600080fd5b6000819050919050565b61040c816103f9565b811461041757600080fd5b50565b60008135905061042981610403565b92915050565b600060208284031215610445576104446103f4565b5b60006104538482850161041a565b91505092915050565b600073ffffffffffffffffffffffffffffffffffffffff82169050919050565b60006104878261045c565b9050919050565b6104978161047c565b82525050565b6104a6816103f9565b82525050565b60006060820190506104c1600083018661048e565b6104ce602083018561049d565b6104db604083018461049d565b949350505050565b60006020820190506104f8600083018461049d565b92915050565b60006105098261045c565b9050919050565b610519816104fe565b811461052457600080fd5b50565b60008135905061053681610510565b92915050565b600060208284031215610552576105516103f4565b5b600061056084828501610527565b91505092915050565b610572816104fe565b82525050565b600060208201905061058d6000830184610569565b92915050565b600082825260208201905092915050565b7f4d7573682067726561746572207468616e207a65726f00000000000000000000600082015250565b60006105da601683610593565b91506105e5826105a4565b602082019050919050565b60006020820190508181036000830152610609816105cd565b9050919050565b7f4e487b7100000000000000000000000000000000000000000000000000000000600052601160045260246000fd5b600061064a826103f9565b9150610655836103f9565b925082820190508082111561066d5761066c610610565b5b92915050565b600061067e826103f9565b91507fffffffffffffffffffffffffffffffffffffffffffffffffffffffffffffffff82036106b0576106af610610565b5b60018201905091905056fea2646970667358221220d701d1a1b1b7e5b19a482015bbbbcb7d0dc5886d9e2efd07e609ea18a8a53e8b64736f6c63430008110033",
  "immutableReferences": {},
  "source": "// SPDX-License-Identifier: MIT\r\npragma solidity ^0.8.4;\r\n\r\ncontract Donation {\r\n    uint256 public totalDonation;\r\n    uint256 public donationCount;\r\n    address payable public owner;\r\n\r\n    receive() external payable {\r\n    }\r\n\r\n    constructor() {\r\n        owner = payable(msg.sender);\r\n    }\r\n\r\n    modifier onlyOwner() {\r\n        require(msg.sender == owner);\r\n        _;\r\n    }\r\n\r\n    mapping (uint256 => TransactionDetail) public transactionHistory;\r\n\r\n    struct TransactionDetail {\r\n        address addr;\r\n        uint256 amount;\r\n        uint256 timestamp;\r\n    }\r\n\r\n    function sendDonation() public payable {\r\n        require(msg.value > 0, \"Mush greater than zero\");\r\n        owner.transfer(msg.value);\r\n        transactionHistory[donationCount] = TransactionDetail(msg.sender, msg.value, block.timestamp);\r\n        totalDonation += msg.value;\r\n        donationCount++;\r\n    }\r\n\r\n    function setAddrFundraiser(address payable _addr) public onlyOwner {\r\n        owner = _addr;\r\n    }\r\n}",
  "sourcePath": "D:\\Downloads\\CleanRiver\\truffle\\contracts\\Donation.sol",
  "compiler": {
    "name": "solc",
    "version": "0.8.17+commit.8df45f5f.Emscripten.clang"
  },
  "schemaVersion": "3.4.11",
  "updatedAt": "2023-02-26T04:19:58.247Z",
  "devdoc": {
    "kind": "dev",
    "methods": {},
    "version": 1
  },
  "userdoc": {
    "kind": "user",
    "methods": {},
    "version": 1
  }
}